:020000040000fa
:080000000002040000000000f2
:020000040000fa
:100400006f8020000e7f22000e0188000000000097
:100410000c000700403c20000100200011000700f4
:10042000000020000000e000020032000000020096
:100430000000000036030200000000000040da0067
:100440000000fe004440a900000020000000e00081
:100450000300320000002000a00188004440a800f2
:100460000000060091018800800078000000eb0089
:1004700015003700e280400032a0b4009101ba00bc
:10048000e280400032a0b4009102ba00e280400055
:1004900032a0b4000002eb00472bde00f507b200eb
:1004a000602ce10004003a000059eb008301e900f0
:1004b000fdff3e00040037006128e100010032002a
:1004c0000082eb00040007001101ba000200e00006
:1004d000e8ff3a00000006003159ba008301e90044
:1004e0000c0032002159ba008301e90008003200f3
:1004f0000400e00003003a00e280400032a0b400b3
:10050000f5ff370011d9ba008301e900faff3a007c
:100510008100e800e180400032a0b4000000060045
:080520000040da000000fe00bb
:020000040000fa
:0200000401f009
:04000c00f8ff0000f9
:020000040000fa
:0200000401f009
:040010007fff00006e
:020000040000fa
:0200000401f009
:040014007fff00006a
:020000040000fa
:0200000401f009
:04001c00dfff000002
:020000040000fa
:1000080090020000900200009002000090020000a0
:100018009002000090020000900200009002000090
:10002800900200009002000090020000da02000036
:100038009002000090020000900200009002000070
:100048009002000090020000900200009002000060
:100058009002000090020000900200009002000050
:100068009002000090020000900200009002000040
:100078009002000090020000900200009002000030
:100088009002000090020000900200009002000020
:100098009002000090020000900200009002000010
:1000a8009002000090020000900200009002000000
:1000b80090020000900200009002000090020000f0
:1000c80090020000900200009002000090020000e0
:1000d80090020000900200009002000090020000d0
:1000e80090020000900200009002000090020000c0
:1000f80090020000900200009002000090020000b0
:10010800900200009002000090020000900200009f
:10011800900200009002000090020000900200008f
:10012800900200009002000090020000900200007f
:10013800900200009002000090020000900200006f
:10014800900200009002000090020000900200005f
:10015800900200009002000090020000900200004f
:10016800900200009002000090020000900200003f
:10017800900200009002000090020000900200002f
:10018800900200009002000090020000900200001f
:10019800900200009002000090020000900200000f
:1001a80090020000900200009002000090020000ff
:1001b80090020000900200009002000090020000ef
:1001c80090020000900200009002000090020000df
:1001d80090020000900200009002000090020000cf
:1001e80090020000900200009002000090020000bf
:0801f8009002000090020000db
:020000040000fa
:10020800900200009002000090020000900200009e
:10021800900200009002000090020000900200008e
:10022800900200009002000090020000da02000034
:10023800900200009002000090020000900200006e
:10024800900200009002000090020000900200005e
:10025800900200009002000090020000900200004e
:10026800900200009002000090020000900200003e
:10027800900200009002000090020000900200002e
:10028800900200009002000090020000900200001e
:10029800900200009002000090020000900200000e
:1002a80090020000900200009002000090020000fe
:1002b80090020000900200009002000090020000ee
:1002c80090020000900200009002000090020000de
:1002d80090020000900200009002000090020000ce
:1002e80090020000900200009002000090020000be
:1002f80090020000900200009002000090020000ae
:10030800900200009002000090020000900200009d
:10031800900200009002000090020000900200008d
:10032800900200009002000090020000900200007d
:10033800900200009002000090020000900200006d
:10034800900200009002000090020000900200005d
:10035800900200009002000090020000900200004d
:10036800900200009002000090020000900200003d
:10037800900200009002000090020000900200002d
:10038800900200009002000090020000900200001d
:10039800900200009002000090020000900200000d
:1003a80090020000900200009002000090020000fd
:1003b80090020000900200009002000090020000ed
:1003c80090020000900200009002000090020000dd
:1003d80090020000900200009002000090020000cd
:1003e80090020000900200009002000090020000bd
:0803f8009002000090020000d9
:020000040000fa
:100528000000fa0090022000303a880044c7bf005b
:10053800f043b20044e7b7004174200091407800ce
:1005480000ceb30000c0600044e7b70012002000ee
:1005580081072000a0092000337420008149780019
:100568008049780082497800120020006104200048
:1005780070052000237420008149780080497800a4
:100588008249780043c7bf000047b200f04f5000cf
:10059800fcff3a0042c7bf000042b2000004e0007e
:1005a800fcff32000080fa0000000600809fbe00b9
:1005b8003400f80000002000a00188000000fa00c4
:1005c8008460a90000408000114080006100400064
:1005d800e08048000040880011408800100020009a
:1005e800204088000080fa003400f9004f00be0067
:1005f800004006000000fa000000eb000008880038
:1006080070352100100888000001280020088800a3
:100618008460a9009460a8000080fa000000060029
:100628000000fa00c0ff2f006019880010002000a9
:10063800001688000000eb00301688000000eb0070
:100648002016880000042000401688000000eb00f7
:10065800701688000000eb00601688000080fa0021
:10066800000006000600fa000000eb0020079800d2
:100678000000eb00100798000000eb00000f780066
:10068800a7ff0700e6ff0700daff0700cac2bf009e
:100698000044b2000004e0000a0032001e0fe80027
:1006a800200320009e0f10000600340080c72e0093
:1006b8002007980000002100601688000000eb0069
:1006c800000f7800ae00900070382100808f500035
:1006d80003003c0000002100601688001c00370061
:1006e800ae00900080382100808f50000700340051
:1006f800ae00900070b52100808f500003003c00d0
:10070800000022006016880011003700ae0090003b
:1007180080b52100808f500007003400ae009000a3
:10072800f0ed2200808f500003003c000000240000
:100738006016880006003700ae00900000ee220028
:10074800808f5000020034000000eb002007980062
:100758002e0090000000e8002007980002003700f3
:10076800cbc2bf00cbc2bf00204080000000e00029
:10077800fbff32000000eb0020408800c3ff370079
:020000040000fa
:100788000008000006000000020000000000000051
:08079800000000000000000059
:00000001FF
